{
  "contractName": "SSLBlockchainReg",
  "abi": [
    {
      "anonymous": false,
      "inputs": [
        {
          "indexed": false,
          "internalType": "address",
          "name": "ethAddr",
          "type": "address"
        },
        {
          "indexed": false,
          "internalType": "bytes",
          "name": "identity",
          "type": "bytes"
        }
      ],
      "name": "rvkDID",
      "type": "event"
    },
    {
      "anonymous": false,
      "inputs": [
        {
          "indexed": false,
          "internalType": "bytes",
          "name": "identity",
          "type": "bytes"
        },
        {
          "indexed": false,
          "internalType": "bytes",
          "name": "newCertHash",
          "type": "bytes"
        }
      ],
      "name": "updCertHash",
      "type": "event"
    },
    {
      "anonymous": false,
      "inputs": [
        {
          "indexed": false,
          "internalType": "bytes",
          "name": "identity",
          "type": "bytes"
        },
        {
          "indexed": false,
          "internalType": "bytes",
          "name": "newDsRA",
          "type": "bytes"
        }
      ],
      "name": "updDsRA",
      "type": "event"
    },
    {
      "inputs": [
        {
          "internalType": "bytes",
          "name": "",
          "type": "bytes"
        }
      ],
      "name": "registry",
      "outputs": [
        {
          "internalType": "address",
          "name": "ethAddr",
          "type": "address"
        },
        {
          "internalType": "bytes",
          "name": "id",
          "type": "bytes"
        },
        {
          "internalType": "bytes",
          "name": "secretHash",
          "type": "bytes"
        },
        {
          "internalType": "bytes",
          "name": "certHash",
          "type": "bytes"
        },
        {
          "internalType": "bytes",
          "name": "dsRA",
          "type": "bytes"
        },
        {
          "internalType": "address",
          "name": "revkAddr",
          "type": "address"
        }
      ],
      "stateMutability": "view",
      "type": "function",
      "constant": true
    },
    {
      "inputs": [
        {
          "internalType": "bytes",
          "name": "identity",
          "type": "bytes"
        },
        {
          "internalType": "bytes",
          "name": "secretHash",
          "type": "bytes"
        },
        {
          "internalType": "address",
          "name": "revkAddr",
          "type": "address"
        }
      ],
      "name": "newDID",
      "outputs": [],
      "stateMutability": "nonpayable",
      "type": "function"
    },
    {
      "inputs": [
        {
          "internalType": "bytes",
          "name": "identity",
          "type": "bytes"
        }
      ],
      "name": "resolutionDID",
      "outputs": [
        {
          "internalType": "bytes",
          "name": "",
          "type": "bytes"
        },
        {
          "internalType": "address",
          "name": "",
          "type": "address"
        }
      ],
      "stateMutability": "view",
      "type": "function",
      "constant": true
    },
    {
      "inputs": [
        {
          "internalType": "bytes",
          "name": "identity",
          "type": "bytes"
        }
      ],
      "name": "infoCT",
      "outputs": [
        {
          "internalType": "bytes",
          "name": "",
          "type": "bytes"
        },
        {
          "internalType": "bytes",
          "name": "",
          "type": "bytes"
        }
      ],
      "stateMutability": "view",
      "type": "function",
      "constant": true
    },
    {
      "inputs": [
        {
          "internalType": "bytes",
          "name": "identity",
          "type": "bytes"
        },
        {
          "internalType": "bytes",
          "name": "newCertHash",
          "type": "bytes"
        },
        {
          "internalType": "bytes",
          "name": "newDsRA",
          "type": "bytes"
        }
      ],
      "name": "updateEntry",
      "outputs": [],
      "stateMutability": "nonpayable",
      "type": "function"
    },
    {
      "inputs": [
        {
          "internalType": "bytes",
          "name": "identity",
          "type": "bytes"
        },
        {
          "internalType": "bytes",
          "name": "secret",
          "type": "bytes"
        }
      ],
      "name": "revokeDID",
      "outputs": [],
      "stateMutability": "nonpayable",
      "type": "function"
    }
  ],
  "bytecode": "0x608060405234801561001057600080fd5b50611c01806100206000396000f3fe608060405234801561001057600080fd5b50600436106100625760003560e01c80633edf3506146100675780636c0731c21461008357806379e474941461009f5780639d78d969146100d0578063a15d581c146100ec578063e4f18c5314610121575b600080fd5b610081600480360381019061007c91906112ab565b610152565b005b61009d60048036038101906100989190611336565b6105a7565b005b6100b960048036038101906100b491906113ae565b61083e565b6040516100c792919061147f565b60405180910390f35b6100ea60048036038101906100e591906114b6565b610a0f565b005b610106600480360381019061010191906113ae565b610bf7565b6040516101189695949392919061156c565b60405180910390f35b61013b600480360381019061013691906113ae565b610ea9565b6040516101499291906115e9565b60405180910390f35b600160003373ffffffffffffffffffffffffffffffffffffffff1673ffffffffffffffffffffffffffffffffffffffff16815260200190815260200160002060009054906101000a900460ff16156101df576040517f08c379a00000000000000000000000000000000000000000000000000000000081526004016101d690611676565b60405180910390fd5b6002836040516101ef91906116d2565b908152602001604051809103902060009054906101000a900460ff161561024b576040517f08c379a000000000000000000000000000000000000000000000000000000000815260040161024290611735565b60405180910390fd5b600160008273ffffffffffffffffffffffffffffffffffffffff1673ffffffffffffffffffffffffffffffffffffffff16815260200190815260200160002060009054906101000a900460ff16156102d8576040517f08c379a00000000000000000000000000000000000000000000000000000000081526004016102cf906117c7565b60405180910390fd5b60018060003373ffffffffffffffffffffffffffffffffffffffff1673ffffffffffffffffffffffffffffffffffffffff16815260200190815260200160002060006101000a81548160ff021916908315150217905550600160028460405161034191906116d2565b908152602001604051809103902060006101000a81548160ff02191690831515021790555060018060008373ffffffffffffffffffffffffffffffffffffffff1673ffffffffffffffffffffffffffffffffffffffff16815260200190815260200160002060006101000a81548160ff02191690831515021790555060016003836040516103cf91906116d2565b908152602001604051809103902060006101000a81548160ff02191690831515021790555060006040518060c001604052803373ffffffffffffffffffffffffffffffffffffffff16815260200185815260200184815260200160405180604001604052806001815260200160008152508152602001604051806040016040528060018152602001600081525081526020018373ffffffffffffffffffffffffffffffffffffffff1681525090508060008560405161048e91906116d2565b908152602001604051809103902060008201518160000160006101000a81548173ffffffffffffffffffffffffffffffffffffffff021916908373ffffffffffffffffffffffffffffffffffffffff16021790555060208201518160010190805190602001906104ff929190611010565b50604082015181600201908051906020019061051c929190611010565b506060820151816003019080519060200190610539929190611010565b506080820151816004019080519060200190610556929190611010565b5060a08201518160050160006101000a81548173ffffffffffffffffffffffffffffffffffffffff021916908373ffffffffffffffffffffffffffffffffffffffff16021790555090505050505050565b6002826040516105b791906116d2565b908152602001604051809103902060009054906101000a900460ff16610612576040517f08c379a000000000000000000000000000000000000000000000000000000000815260040161060990611833565b60405180910390fd5b60008260405161062291906116d2565b908152602001604051809103902060050160009054906101000a900473ffffffffffffffffffffffffffffffffffffffff1673ffffffffffffffffffffffffffffffffffffffff163373ffffffffffffffffffffffffffffffffffffffff16146106c1576040517f08c379a00000000000000000000000000000000000000000000000000000000081526004016106b89061189f565b60405180910390fd5b6000826040516106d191906116d2565b90815260200160405180910390206002016106eb9061199b565b816040516020016106fc91906116d2565b6040516020818303038152906040528051906020012014610752576040517f08c379a000000000000000000000000000000000000000000000000000000000815260040161074990611a58565b60405180910390fd5b60008260405161076291906116d2565b9081526020016040518091039020600080820160006101000a81549073ffffffffffffffffffffffffffffffffffffffff02191690556001820160006107a89190611096565b6002820160006107b89190611096565b6003820160006107c89190611096565b6004820160006107d89190611096565b6005820160006101000a81549073ffffffffffffffffffffffffffffffffffffffff021916905550507fe4bd1468c4377bb4b151b07c07dc7e47ad83f1e58811d6edc7890b9bba6e854a3383604051610832929190611a78565b60405180910390a15050565b60608060028360405161085191906116d2565b908152602001604051809103902060009054906101000a900460ff166108ac576040517f08c379a00000000000000000000000000000000000000000000000000000000081526004016108a390611833565b60405180910390fd5b6000836040516108bc91906116d2565b90815260200160405180910390206003016000846040516108dd91906116d2565b90815260200160405180910390206004018180546108fa906118ee565b80601f0160208091040260200160405190810160405280929190818152602001828054610926906118ee565b80156109735780601f1061094857610100808354040283529160200191610973565b820191906000526020600020905b81548152906001019060200180831161095657829003601f168201915b50505050509150808054610986906118ee565b80601f01602080910402602001604051908101604052809291908181526020018280546109b2906118ee565b80156109ff5780601f106109d4576101008083540402835291602001916109ff565b820191906000526020600020905b8154815290600101906020018083116109e257829003601f168201915b5050505050905091509150915091565b600083604051610a1f91906116d2565b908152602001604051809103902060000160009054906101000a900473ffffffffffffffffffffffffffffffffffffffff1673ffffffffffffffffffffffffffffffffffffffff163373ffffffffffffffffffffffffffffffffffffffff1614610abe576040517f08c379a0000000000000000000000000000000000000000000000000000000008152600401610ab590611af4565b60405180910390fd5b600082511115610b585781600084604051610ad991906116d2565b90815260200160405180910390206003019080519060200190610afd929190611010565b507fb7c63f0a26c99d7d076af9ffb6b41fd14486dfb55fa354cd8e8c4bf57ea2b7b583600085604051610b3091906116d2565b9081526020016040518091039020600301604051610b4f929190611b94565b60405180910390a15b600081511115610bf25780600084604051610b7391906116d2565b90815260200160405180910390206004019080519060200190610b97929190611010565b507f25a8e0f5c4abb4857385392275b9c128b1208a9098244f2874ab6feb3c7270bf83600085604051610bca91906116d2565b9081526020016040518091039020600401604051610be9929190611b94565b60405180910390a15b505050565b6000818051602081018201805184825260208301602085012081835280955050505050506000915090508060000160009054906101000a900473ffffffffffffffffffffffffffffffffffffffff1690806001018054610c56906118ee565b80601f0160208091040260200160405190810160405280929190818152602001828054610c82906118ee565b8015610ccf5780601f10610ca457610100808354040283529160200191610ccf565b820191906000526020600020905b815481529060010190602001808311610cb257829003601f168201915b505050505090806002018054610ce4906118ee565b80601f0160208091040260200160405190810160405280929190818152602001828054610d10906118ee565b8015610d5d5780601f10610d3257610100808354040283529160200191610d5d565b820191906000526020600020905b815481529060010190602001808311610d4057829003601f168201915b505050505090806003018054610d72906118ee565b80601f0160208091040260200160405190810160405280929190818152602001828054610d9e906118ee565b8015610deb5780601f10610dc057610100808354040283529160200191610deb565b820191906000526020600020905b815481529060010190602001808311610dce57829003601f168201915b505050505090806004018054610e00906118ee565b80601f0160208091040260200160405190810160405280929190818152602001828054610e2c906118ee565b8015610e795780601f10610e4e57610100808354040283529160200191610e79565b820191906000526020600020905b815481529060010190602001808311610e5c57829003601f168201915b5050505050908060050160009054906101000a900473ffffffffffffffffffffffffffffffffffffffff16905086565b60606000600283604051610ebd91906116d2565b908152602001604051809103902060009054906101000a900460ff16610f18576040517f08c379a0000000000000000000000000000000000000000000000000000000008152600401610f0f90611833565b60405180910390fd5b600083604051610f2891906116d2565b9081526020016040518091039020600101600084604051610f4991906116d2565b908152602001604051809103902060000160009054906101000a900473ffffffffffffffffffffffffffffffffffffffff16818054610f87906118ee565b80601f0160208091040260200160405190810160405280929190818152602001828054610fb3906118ee565b80156110005780601f10610fd557610100808354040283529160200191611000565b820191906000526020600020905b815481529060010190602001808311610fe357829003601f168201915b5050505050915091509150915091565b82805461101c906118ee565b90600052602060002090601f01602090048101928261103e5760008555611085565b82601f1061105757805160ff1916838001178555611085565b82800160010185558215611085579182015b82811115611084578251825591602001919060010190611069565b5b50905061109291906110d6565b5090565b5080546110a2906118ee565b6000825580601f106110b457506110d3565b601f0160209004906000526020600020908101906110d291906110d6565b5b50565b5b808211156110ef5760008160009055506001016110d7565b5090565b6000604051905090565b600080fd5b600080fd5b600080fd5b600080fd5b6000601f19601f8301169050919050565b7f4e487b7100000000000000000000000000000000000000000000000000000000600052604160045260246000fd5b61115a82611111565b810181811067ffffffffffffffff8211171561117957611178611122565b5b80604052505050565b600061118c6110f3565b90506111988282611151565b919050565b600067ffffffffffffffff8211156111b8576111b7611122565b5b6111c182611111565b9050602081019050919050565b82818337600083830152505050565b60006111f06111eb8461119d565b611182565b90508281526020810184848401111561120c5761120b61110c565b5b6112178482856111ce565b509392505050565b600082601f83011261123457611233611107565b5b81356112448482602086016111dd565b91505092915050565b600073ffffffffffffffffffffffffffffffffffffffff82169050919050565b60006112788261124d565b9050919050565b6112888161126d565b811461129357600080fd5b50565b6000813590506112a58161127f565b92915050565b6000806000606084860312156112c4576112c36110fd565b5b600084013567ffffffffffffffff8111156112e2576112e1611102565b5b6112ee8682870161121f565b935050602084013567ffffffffffffffff81111561130f5761130e611102565b5b61131b8682870161121f565b925050604061132c86828701611296565b9150509250925092565b6000806040838503121561134d5761134c6110fd565b5b600083013567ffffffffffffffff81111561136b5761136a611102565b5b6113778582860161121f565b925050602083013567ffffffffffffffff81111561139857611397611102565b5b6113a48582860161121f565b9150509250929050565b6000602082840312156113c4576113c36110fd565b5b600082013567ffffffffffffffff8111156113e2576113e1611102565b5b6113ee8482850161121f565b91505092915050565b600081519050919050565b600082825260208201905092915050565b60005b83811015611431578082015181840152602081019050611416565b83811115611440576000848401525b50505050565b6000611451826113f7565b61145b8185611402565b935061146b818560208601611413565b61147481611111565b840191505092915050565b600060408201905081810360008301526114998185611446565b905081810360208301526114ad8184611446565b90509392505050565b6000806000606084860312156114cf576114ce6110fd565b5b600084013567ffffffffffffffff8111156114ed576114ec611102565b5b6114f98682870161121f565b935050602084013567ffffffffffffffff81111561151a57611519611102565b5b6115268682870161121f565b925050604084013567ffffffffffffffff81111561154757611546611102565b5b6115538682870161121f565b9150509250925092565b6115668161126d565b82525050565b600060c082019050611581600083018961155d565b81810360208301526115938188611446565b905081810360408301526115a78187611446565b905081810360608301526115bb8186611446565b905081810360808301526115cf8185611446565b90506115de60a083018461155d565b979650505050505050565b600060408201905081810360008301526116038185611446565b9050611612602083018461155d565b9392505050565b600082825260208201905092915050565b7f4144445245535320414c52454144592052454749535445524544000000000000600082015250565b6000611660601a83611619565b915061166b8261162a565b602082019050919050565b6000602082019050818103600083015261168f81611653565b9050919050565b600081905092915050565b60006116ac826113f7565b6116b68185611696565b93506116c6818560208601611413565b80840191505092915050565b60006116de82846116a1565b915081905092915050565b7f4944454e5449545920414c524541445920524547495354455245440000000000600082015250565b600061171f601b83611619565b915061172a826116e9565b602082019050919050565b6000602082019050818103600083015261174e81611712565b9050919050565b7f5245564f4b45204144445245535320414c52454144592052454749535445524560008201527f4400000000000000000000000000000000000000000000000000000000000000602082015250565b60006117b1602183611619565b91506117bc82611755565b604082019050919050565b600060208201905081810360008301526117e0816117a4565b9050919050565b7f554e52454749535445524544204944454e544954590000000000000000000000600082015250565b600061181d601583611619565b9150611828826117e7565b602082019050919050565b6000602082019050818103600083015261184c81611810565b9050919050565b7f494e56414c4944205349474e455220464f52205245564f4b4520545800000000600082015250565b6000611889601c83611619565b915061189482611853565b602082019050919050565b600060208201905081810360008301526118b88161187c565b9050919050565b7f4e487b7100000000000000000000000000000000000000000000000000000000600052602260045260246000fd5b6000600282049050600182168061190657607f821691505b602082108103611919576119186118bf565b5b50919050565b60008154905061192e816118ee565b9050919050565b60008190508160005260206000209050919050565b60008160001c9050919050565b6000819050919050565b600061197461196f8361194a565b611957565b9050919050565b60006119878254611961565b9050919050565b600082821b905092915050565b60006119a68261191f565b82601f8211156119bc576119b984611935565b90505b6119c58161197b565b92506020821015611a0557611a007fffffffffffffffffffffffffffffffffffffffffffffffffffffffffffffffff8360200360080261198e565b831692505b5050919050565b7f494e56414c494420534543524554000000000000000000000000000000000000600082015250565b6000611a42600e83611619565b9150611a4d82611a0c565b602082019050919050565b60006020820190508181036000830152611a7181611a35565b9050919050565b6000604082019050611a8d600083018561155d565b8181036020830152611a9f8184611446565b90509392505050565b7f4e4f204143434553532052494748540000000000000000000000000000000000600082015250565b6000611ade600f83611619565b9150611ae982611aa8565b602082019050919050565b60006020820190508181036000830152611b0d81611ad1565b9050919050565b60008154611b21816118ee565b611b2b8186611402565b94506001821660008114611b465760018114611b5857611b8b565b60ff1983168652602086019350611b8b565b611b6185611935565b60005b83811015611b8357815481890152600182019150602081019050611b64565b808801955050505b50505092915050565b60006040820190508181036000830152611bae8185611446565b90508181036020830152611bc28184611b14565b9050939250505056fea26469706673582212209ffdf821c4c8ad0a2b4f3d0977f5a9a31dd63c3df0da2259aba08628dfee150464736f6c634300080d0033",
  "immutableReferences": {},
  "source": "// SPDX-License-Identifier: MIT \r\npragma solidity >=0.4.22 <0.9.0;\r\n\r\ncontract SSLBlockchainReg {\r\n    struct Entry {\r\n        address ethAddr;\r\n        bytes id;\r\n        bytes secretHash;\r\n        bytes certHash;\r\n        bytes dsRA;\r\n        address revkAddr;\r\n    }\r\n\r\n    mapping (bytes => Entry) public registry;\r\n    mapping (address => bool) private isValueExist_Addr;\r\n    mapping (bytes => bool) private isValueExist_ID;\r\n    mapping (bytes => bool) private isValueExist_Secret;\r\n\r\n    event updCertHash(\r\n        bytes identity,\r\n        bytes newCertHash\r\n    );\r\n\r\n    event updDsRA(\r\n        bytes identity,\r\n        bytes newDsRA\r\n    );\r\n\r\n    event rvkDID(\r\n        address ethAddr,\r\n        bytes identity\r\n    );\r\n\r\n    function newDID(bytes memory identity, bytes memory secretHash, address revkAddr) public{\r\n        require(!isValueExist_Addr[msg.sender], \"ADDRESS ALREADY REGISTERED\");\r\n        require(!isValueExist_ID[identity],\"IDENTITY ALREADY REGISTERED\");\r\n        //require(!isValueExist_Secret[secretHash], \"SECRET HASH ALREADY USED\");\r\n        require(!isValueExist_Addr[revkAddr], \"REVOKE ADDRESS ALREADY REGISTERED\");\r\n\r\n        isValueExist_Addr[msg.sender] = true;\r\n        isValueExist_ID[identity] = true;\r\n        isValueExist_Addr[revkAddr] = true;\r\n        isValueExist_Secret[secretHash] = true;\r\n\r\n        Entry memory entry = Entry(msg.sender, identity, secretHash, hex\"00\", hex\"00\", revkAddr);\r\n        registry[identity] = entry;\r\n    }\r\n\r\n    //If the event returns registry[identity].id 0x0 means a revoked did\r\n    function resolutionDID(bytes memory identity) public view returns(bytes memory, address){\r\n        require(isValueExist_ID[identity], \"UNREGISTERED IDENTITY\");\r\n        return(registry[identity].id, registry[identity].ethAddr);\r\n    }\r\n\r\n    //If the event returns registry[identity].id 0x0 means a revoked did\r\n    function infoCT(bytes memory identity) public view returns(bytes memory, bytes memory){\r\n        require(isValueExist_ID[identity], \"UNREGISTERED IDENTITY\");\r\n        return(registry[identity].certHash, registry[identity].dsRA);\r\n    }\r\n\r\n    //It can be called to update both certificate hash and dsRA or only one of these two values at time.\r\n    function updateEntry(bytes memory identity, bytes memory newCertHash, bytes memory newDsRA) public {\r\n        require(msg.sender == registry[identity].ethAddr, \"NO ACCESS RIGHT\");\r\n    \r\n        if(bytes(newCertHash).length > 0) {\r\n            registry[identity].certHash = newCertHash;\r\n            emit updCertHash(identity, registry[identity].certHash);\r\n        }\r\n        \r\n        if(bytes(newDsRA).length > 0) {\r\n            registry[identity].dsRA = newDsRA;\r\n            emit updDsRA(identity, registry[identity].dsRA);\r\n        }\r\n    }\r\n\r\n    function revokeDID(bytes memory identity, bytes memory secret) public {\r\n        require(isValueExist_ID[identity],\"UNREGISTERED IDENTITY\");\r\n        require(msg.sender == registry[identity].revkAddr, \"INVALID SIGNER FOR REVOKE TX\");\r\n        require(keccak256(abi.encodePacked(secret)) == bytes32(registry[identity].secretHash), \"INVALID SECRET\");\r\n\r\n        delete(registry[identity]);\r\n\r\n        emit rvkDID(msg.sender, identity);\r\n    }\r\n}",
  "sourcePath": "/mnt/c/Users/andre/OneDrive - University of Pisa/Peer_to_Peer_Blockchain/TESI/D-PKI/contracts/SSLBlockchainReg.sol",
  "compiler": {
    "name": "solc",
    "version": "0.8.13+commit.abaa5c0e.Emscripten.clang"
  },
  "schemaVersion": "3.4.16",
  "updatedAt": "2024-04-18T16:29:03.493Z",
  "networkType": "ethereum",
  "devdoc": {
    "kind": "dev",
    "methods": {},
    "version": 1
  },
  "userdoc": {
    "kind": "user",
    "methods": {},
    "version": 1
  }
}